23:06:17.686615 IP localhost.52843 > localhost.8080: UDP, length 11
	0x0000:  4500 0027 9928 4000 4011 a39b 7f00 0001  E..'.(@.@.......
	0x0010:  7f00 0001 ce6b 1f90 0013 fe26 d035 2e4c  .....k.....&.5.L
	0x0020:  0000 2eae 04a9 01                        .......
23:06:17.686682 IP localhost.8080 > localhost.52843: UDP, length 11
	0x0000:  4500 0027 9929 4000 4011 a39a 7f00 0001  E..'.)@.@.......
	0x0010:  7f00 0001 1f90 ce6b 0013 fe26 d135 2e4c  .......k...&.5.L
	0x0020:  0000 c210 8486 03                        .......
23:06:17.686739 IP localhost.52843 > localhost.8080: UDP, length 11
	0x0000:  4500 0027 992a 4000 4011 a399 7f00 0001  E..'.*@.@.......
	0x0010:  7f00 0001 ce6b 1f90 0013 fe26 d135 2e4c  .....k.....&.5.L
	0x0020:  0000 5420 83f1 02                        ..T....
23:06:17.686851 IP localhost.52843 > localhost.8080: UDP, length 5
	0x0000:  4500 0021 992b 4000 4011 a39e 7f00 0001  E..!.+@.@.......
	0x0010:  7f00 0001 ce6b 1f90 000d fe20 d135 2e4c  .....k.......5.L
	0x0020:  c8                                       .
23:06:17.802910 IP localhost.52843 > localhost.8080: UDP, length 11
	0x0000:  4500 0027 992e 4000 4011 a395 7f00 0001  E..'..@.@.......
	0x0010:  7f00 0001 ce6b 1f90 0013 fe26 d235 2e4c  .....k.....&.5.L
	0x0020:  0000 60e3 0281 04                        ..`....

